:100000000C942A000C9447000C9447000C94470071
:100010000C9447000C9447000C9447000C94470044
:100020000C9447000C9447000C94FA060C9447007B
:100030000C9447000C9447000C9447000C94470024
:100040000C9447000C9447000C9447000C94470014
:100050000C94470011241FBECFE5D8E0DEBFCDBF12
:1000600011E0A0E6B0E0E0E2F0E102C005900D9200
:10007000AC3DB107D9F721E0ACEDB1E001C01D9274
:10008000AF3DB207E1F70E94B8030C940E080C9440
:100090000000823419F118F4813439F00895833462
:1000A000B1F1843409F44CC00895413059F42AB3B5
:1000B00081E090E002C0880F991F6A95E2F7822BD9
:1000C0008ABB08952AB381E090E002C0880F991F8F
:1000D0006A95E2F7809582238ABB0895413059F4EE
:1000E00027B381E090E002C0880F991F6A95E2F77C
:1000F000822B87BB089527B381E090E002C0880F70
:10010000991F6A95E2F78095822387BB0895413055
:1001100059F424B381E090E002C0880F991F6A95DA
:10012000E2F7822B84BB089524B381E090E002C003
:10013000880F991F6A95E2F78095822384BB089502
:10014000413059F421B381E090E002C0880F991F3B
:100150006A95E2F7822B81BB089521B381E090E09C
:1001600002C0880F991F6A95E2F78095822381BBB0
:100170000895823419F118F4813439F008958334E4
:10018000B1F1843409F44CC00895413059F42BB3D3
:1001900081E090E002C0880F991F6A95E2F7822BF8
:1001A0008BBB08952BB381E090E002C0880F991FAC
:1001B0006A95E2F7809582238BBB0895413059F40C
:1001C00028B381E090E002C0880F991F6A95E2F79A
:1001D000822B88BB089528B381E090E002C0880F8D
:1001E000991F6A95E2F78095822388BB0895413074
:1001F00059F425B381E090E002C0880F991F6A95F9
:10020000E2F7822B85BB089525B381E090E002C020
:10021000880F991F6A95E2F78095822385BB089520
:10022000413059F422B381E090E002C0880F991F59
:100230006A95E2F7822B82BB089522B381E090E0B9
:1002400002C0880F991F6A95E2F78095822382BBCE
:1002500008958234D9F018F4813431F04DC08334DC
:1002600039F18434B9F148C029B381E090E0062E19
:1002700002C0880F991F0A94E2F730E0822393238B
:1002800002C0959587956A95E2F7089526B381E0B7
:1002900090E0062E02C0880F991F0A94E2F730E022
:1002A0008223932302C0959587956A95E2F7089576
:1002B00023B381E090E0062E02C0880F991F0A94B4
:1002C000E2F730E08223932302C0959587956A95E3
:1002D000E2F7089520B381E090E0062E02C0880F77
:1002E000991F0A94E2F730E08223932302C0959588
:1002F00087956A95E2F7089580E00895823459F071
:1003000018F4813431F00895833439F0843439F0AD
:1003100008956BBB089568BB089565BB089562BBE3
:100320000895823461F118F4813441F008958334E2
:1003300009F446C0843409F464C00895413099F446
:1003400080B78B7F80BF2AB381E090E002C0880F26
:10035000991F6A95E2F7982F909592239ABB9BB3C9
:10036000892B8BBB08952BB381E090E002C0880FEE
:10037000991F6A95E2F7809582238BBB08954130DF
:1003800099F480B78B7F80BF27B381E090E002C0F3
:10039000880F991F6A95E2F7982F9095922397BB43
:1003A00098B3892B88BB089528B381E090E002C000
:1003B000880F991F6A95E2F78095822388BB08957C
:1003C000413099F480B78B7F80BF24B381E090E007
:1003D00002C0880F991F6A95E2F7982F9095922393
:1003E00094BB95B3892B85BB089525B381E090E03C
:1003F00002C0880F991F6A95E2F78095822385BB1A
:100400000895413099F480B78B7F80BF21B381E09C
:1004100090E002C0880F991F6A95E2F7982F909597
:10042000922391BB92B3892B82BB089522B381E0C2
:1004300090E002C0880F991F6A95E2F780958223A9
:1004400082BB0895E199FECF9FBB8EBBE09A8DB32E
:100450000895E199FECF4115510591F0460F571FC0
:10046000FB019C01261B370BB9019B012E0F3F1F7F
:100470003FBB2EBBE09A9DB39193E417F507A9F714
:100480000895E199FECF9FBB8EBBE09A8DB386178E
:1004900019F06DBBE29AE19A089541155105C9F032
:1004A000460F571FFB019C01261B370BB901E19931
:1004B000FECF9B012E0F3F1F3FBB2EBBE09A2DB3FB
:1004C0009191291719F09DBBE29AE19AE417F5077B
:1004D00071F7089541E060E084E40E94490041E042
:1004E00061E084E40E94490041E062E084E40E940B
:1004F000490041E063E084E40E94490040E064E098
:1005000084E40E94490040E065E084E40E944900E0
:1005100040E066E084E40E94490040E067E084E453
:100520000E94490041E064E084E40E94910141E0BE
:1005300065E084E40E94910141E066E084E40E9469
:10054000910141E067E084E40E9491010895EF92F7
:10055000FF920F931F93CF93DF93CDB7DEB76097D2
:100560000FB6F894DEBF0FBECDBF80E1E0E6F0E04D
:10057000DE01119601900D928A95E1F7E12CF12CA4
:100580000FEF41E060E084E40E94B90041E061E0E7
:1005900084E40E94B90041E062E084E40E94B90072
:1005A00041E063E084E40E94B9008FE39CE9019795
:1005B000F1F700C0000040E06E2D84E40E94B90015
:1005C00010E064E0610F84E40E94290181110FC0F2
:1005D000F701EE0FFF1FEE0FFF1F81E090E08C0F81
:1005E0009D1FE80FF91FE10FF11D008103C01F5F80
:1005F000143039F79FEFE91AF90A84E0E816F1049C
:1006000009F0BFCF802F60960FB6F894DEBF0FBE03
:10061000CDBFDF91CF911F910F91FF90EF90089583
:1006200041E060E082E40E94B9008FE99FE0019719
:10063000F1F700C0000040E060E082E40E94B900F1
:100640008FE99FE00197F1F700C000000895682F3F
:1006500081E40E947E0140E061E082E40E94B900F2
:100660000E941003089541E060E081E40E94490087
:1006700041E061E081E40E94490041E062E081E400
:100680000E94490041E063E081E40E94490041E0AA
:1006900064E081E40E94490041E065E081E40E9459
:1006A000490041E066E081E40E94490041E067E0E2
:1006B00081E40E94490041E060E082E40E94490038
:1006C00041E062E082E40E94490041E061E082E4AE
:1006D0000E94490040E062E082E40E94B90088E3A1
:1006E0000E94270381E00E9427038EE00E942703D7
:1006F0008FE19EE40197F1F700C000000895682F94
:1007000081E40E947E0141E061E082E40E94B90040
:100710000E9410030895CF93DF93EC018881882312
:1007200031F021960E947F0389918111FBCFDF91E7
:10073000CF91089581E00E9427030895813019F434
:100740008FE7860F06C0823019F48FEB860F01C049
:1007500080E80E942703089541E00E94490008951F
:1007600041E00E94B900089540E00E94B900089558
:10077000CF93DF93CDB7DEB728970FB6F894DEBFDF
:100780000FBECDBF60E083E40E94AC0361E083E470
:100790000E94AC0362E083E40E94AC030E94330336
:1007A0000E946A020E94E20780E790E00E948B03A9
:1007B00061E082E00E949E0381E890E00E948B034A
:1007C0002FEF39E688E1215030408040E1F700C04A
:1007D00000000E949A0380E091E00E942202813092
:1007E00039F481E091E00E942202813009F4CAC00C
:1007F0008DE890E00E948B0361E082E00E949E03FE
:1008000087E990E00E948B039FEFE9E6F8E19150C1
:10081000E040F040E1F700C000000E949A0382EA45
:1008200090E00E948B0361E082E00E949E0381EBD6
:1008300090E00E948B038FEF89838A838B838C8364
:100840009E012F5F3F4F790169011CE00E94A702C2
:100850008F3FE1F3F60181936F010E947F03FFEF69
:1008600022E537E0F15020403040E1F700C00000C1
:10087000612F82E00E949E038AE20E947F038FEF35
:1008800090E7E2E081509040E040E1F700C00000D6
:100890001F5F1031D9F644E050E0BE016F5F7F4F1B
:1008A00082E091E00E944D0261E080E091E00E94D0
:1008B00041020E949A038DEB90E00E948B03FFEFB0
:1008C00024E33CE0F15020403040E1F700C000005C
:1008D0000E949A0388EC90E00E948B0361E082E022
:1008E0000E949E0387ED90E00E948B031CE00E9413
:1008F000A7028F3FE1F3F70181937F010E947F03FD
:10090000FFEF22E537E0F15020403040E1F700C032
:100910000000612F82E00E949E038AE20E947F0312
:100920008FEF90E7E2E081509040E040E1F700C0B7
:1009300000001F5F1031D9F644E050E0BE016F5F48
:100940007F4F86E091E00E944D0261E081E091E0FE
:100950000E9441020E949A038DEB90E00E948B035B
:10096000FFEF24E33CE0F15020403040E1F700C0CD
:1009700000000E949A0360E08AE091E00E94410238
:10098000B12C05C08AE091E00E942202B82EF12C21
:1009900077247A940F2EF2E3AF2EF02D99249394BE
:1009A000C72CD92C8091DC01813001F50E9404080C
:1009B0001092DE011092DD011092DC01692D83E4BA
:1009C0000E94B40360E083E40E94B4030E949A038F
:1009D00083EE90E00E948B038FEF99E6E8E181506F
:1009E0009040E040E1F700C0000002C0F110B0C14B
:1009F00000E0172DF1E0BF1227C00E949A0383EF99
:100A000090E00E948B03692D82E00E949E0381E0AA
:100A100091E00E948B0362E083E40E94B0032AEA23
:100A200036EE86E991E02150304080409040D9F781
:100A3000000062E083E40E94B40360E08AE091E099
:100A40000E94410200E0B12C0E949A0381E191E0F2
:100A50000E948B03692D82E00E949E038FE191E04A
:100A60000E948B031F3F29F40E94A702182F8F3F7B
:100A7000D9F380ED810F823088F00E949A038FE2D3
:100A800091E00E948B03EFEFF9E628E1E150F0409E
:100A90002040E1F700C000001C2DACCFCD82CE82FB
:100AA000CF82C886C982CA82CB82CC82103321F021
:100AB000113309F4A4C048C18A2C801A0E949A03F9
:100AC0008CE391E00E948B03692D82E00E949E03DB
:100AD00087E491E00E948B033FEF81EE94E0315078
:100AE00080409040E1F700C000007E01E5E0EE0E9E
:100AF000F11C1CE00E94A7028F3FE1F3F7018193F4
:100B00007F010E947F03FFEF22E537E0F150204094
:100B10003040E1F700C00000612F82E00E949E0398
:100B20008AE20E947F038FEF90E7E2E081509040DD
:100B3000E040E1F700C000001F5F1031D9F644E04B
:100B400050E0BE016F5F7F4F82E091E00E9429027A
:100B500044E0BE016F5F7F4FCE0105960E941107F2
:100B6000813019F50E949A0383E591E00E948B037E
:100B7000692D82E00E949E038CE391E00E948B032A
:100B8000FFEF24E33CE0F15020403040E1F700C0AB
:100B9000000060E083E40E94B0030E94EE070E9420
:100BA0009A0300E01C2DF92CD0C00F5F0E949A031D
:100BB0008EE591E00E948B03692D82E00E949E03E6
:100BC00089E691E00E948B03882D0E947F038FEFBE
:100BD00099E6E8E181509040E040E1F700C0000074
:100BE0000E949A038A94033008F468CF692D8AE042
:100BF00091E00E9441021C2DB92CF12CA6C08A2C38
:100C0000801A0E949A0385E791E00E948B03692D68
:100C100082E00E949E0380E891E00E948B03FFEF38
:100C200021EE34E0F15020403040E1F700C00000F8
:100C30007E0185E0E80EF11C1CE00E94A7028F3FB8
:100C4000E1F3F70181937F010E947F03FFEF22E52B
:100C500037E0F15020403040E1F700C00000612F44
:100C600082E00E949E038AE20E947F038FEF90E75A
:100C7000E2E081509040E040E1F700C000001F5FDB
:100C80001031D9F644E050E0BE016F5F7F4F86E03F
:100C900091E00E94290244E0BE016F5F7F4FCE01C8
:100CA00005960E941107813029F50E949A0383E579
:100CB00091E00E948B03692D82E00E949E0385E7EC
:100CC00091E00E948B03FFEF24E33CE0F1502040D1
:100CD0003040E1F700C00000692D83E40E94B003BA
:100CE0000E94EE070E949A0300E01C2D6894FF24E6
:100CF000F1F82BC00F5F0E949A038CE891E00E94EC
:100D00008B03692D82E00E949E0389E691E00E9498
:100D10008B03882D0E947F038FEF99E6E8E18150D5
:100D20009040E040E1F700C000000E949A038A94DE
:100D3000033008F466CF692D8AE091E00E944102F9
:100D40001C2DB92CF12C01C0F12CFF2009F452CE3E
:100D5000092D46C00330C9F10430E9F1013009F032
:100D600041C00E949A0387E991E00E948B036D2D98
:100D700082E00E949E038F2D0E943307182FFFEF01
:100D800020E732E0F15020403040E1F700C00000A1
:100D9000813361F1823361F18F3F91F00E949A03B8
:100DA00085EA91E00E948B038FEF94E3ECE08150A1
:100DB0009040E040E1F700C000001153143080F093
:100DC0008091DC01882369F20BC06F2D83E00E94C3
:100DD00052070D2D05C06F2D84E00E9452070D2D86
:100DE0008091DC01813009F0B5CFDCCD03E0F8CF94
:100DF00004E0F6CF1F920F920FB60F9211248F933B
:100E00009F938091DD019091DE0101969093DE0128
:100E10008093DD019F918F910F900FBE0F901F90D7
:100E200018954423D1F0FC013081FB01208132135D
:100E300016C0FC013196DB011196415050E04F5F26
:100E40005F4F480F591F04C021919D91291309C07C
:100E5000E417F507C9F781E0089581E0089580E07F
:100E6000089580E00895CF93C82F8091DD0190917F
:100E7000DE01883B9B4010F0C13049F08091DD01DC
:100E80009091DE01803D974038F0C23029F481E036
:100E90008093DC018FEF04C00E94A7028F3F29F3EB
:100EA000CF910895CF92DF92EF92FF920F931F930D
:100EB000CF93DF93D82FE62E00E0F12C10E00F2E19
:100EC000F1E1CF2EF02D0F2EF2E1DF2EF02D0E945A
:100ED0009A03D33019F0D43061F015C081EB91E062
:100EE0000E948B0301E30F2EF1E2FF2EF02D1C2D4B
:100EF0000AC08BEB91E00E948B0302E30F2EF2E21B
:100F0000FF2EF02D1D2D812F0E94E9072FEF80E786
:100F100092E0215080409040E1F700C000008FEF48
:100F20000E94E907813029F483EC91E00E948B0351
:100F300004C086EC91E00E948B0361E082E00E9495
:100F40009E038AEC91E00E948B038E2D0E94330752
:100F5000C82F2FEF80E792E0215080409040E1F7CA
:100F600000C00000C13321F48F2D0E94E90721C089
:100F7000C23321F4802F0E94E9071BC0CF3FA1F0AC
:100F8000C033B9F00E949A0385EA91E00E948B0376
:100F90002FEF84E39CE0215080409040E1F700C0B7
:100FA0000000C053C33028F08091DC01882309F48D
:100FB0008ECFDF91CF911F910F91FF90EF90DF9037
:100FC000CF90089587B3806B87BB8DB181658DB954
:100FD00008958FB9779BFECF8FB108958EE48CBFB3
:100FE00083B7886083BF83B78F7B83BF83B78160FC
:100FF00083BF83B78D7F83BF83B7846083BF7894BB
:1010000089B7826089BF089583B78E7F83BF83B716
:101010008D7F83BF83B78B7F83BF0895F894FFCF05
:101020003738392F3435362A3132332D41303D2B84
:1010300057656C636F6D6520746F20736D6172749A
:1010400000686F6D652073797374656D004C6F6710
:10105000696E20666F720066697273742074696DC0
:1010600065005365742041646D696E20706173730F
:101070000041646D696E20706173733A0050617352
:1010800073205361766564005365742047756573FA
:1010900074205061737300477565737420506173D9
:1010A000733A0053657373696F6E2054696D656F91
:1010B0007574004C6F67696E20626C6F636B65645A
:1010C0000077616974203230207365636F6E6473DA
:1010D0000053656C656374206D6F6465203A003061
:1010E0003A41646D696E20313A47756573740057F3
:1010F000726F6E6720696E7075742E0041646D6941
:101100006E206D6F646500456E746572205061736A
:10111000733A005269676874207061737300577284
:101120006F6E672050617373005472696573206C31
:101130006566743A004775657374206D6F64650069
:10114000456E74657220706173733A0057726F6EEA
:1011500067207061737300313A534552564F203205
:101160003A4C44520057726F6E6720696E70757406
:1011700000534552564F20533A20004C44522053BE
:101180003A20004F4E004F464600312D4F6E203220
:0C1190002D4F666620302D5245540000A3
:00000001FF
